{
  "contractName": "NftMarketplace",
  "abi": [
    {
      "inputs": [],
      "stateMutability": "nonpayable",
      "type": "constructor"
    },
    {
      "inputs": [],
      "name": "InvalidState",
      "type": "error"
    },
    {
      "inputs": [],
      "name": "NftHasOwner",
      "type": "error"
    },
    {
      "inputs": [],
      "name": "NftIsNotCreated",
      "type": "error"
    },
    {
      "inputs": [],
      "name": "OnlyOwner",
      "type": "error"
    },
    {
      "inputs": [],
      "name": "SenderIsNotNftOwner",
      "type": "error"
    },
    {
      "inputs": [],
      "name": "isStopped",
      "outputs": [
        {
          "internalType": "bool",
          "name": "",
          "type": "bool"
        }
      ],
      "stateMutability": "view",
      "type": "function"
    },
    {
      "stateMutability": "payable",
      "type": "receive"
    },
    {
      "inputs": [
        {
          "internalType": "uint256",
          "name": "amount",
          "type": "uint256"
        }
      ],
      "name": "withdraw",
      "outputs": [],
      "stateMutability": "nonpayable",
      "type": "function"
    },
    {
      "inputs": [],
      "name": "emergencyWithdraw",
      "outputs": [],
      "stateMutability": "nonpayable",
      "type": "function"
    },
    {
      "inputs": [],
      "name": "selfDestruct",
      "outputs": [],
      "stateMutability": "nonpayable",
      "type": "function"
    },
    {
      "inputs": [],
      "name": "stopContract",
      "outputs": [],
      "stateMutability": "nonpayable",
      "type": "function"
    },
    {
      "inputs": [],
      "name": "resumeContract",
      "outputs": [],
      "stateMutability": "nonpayable",
      "type": "function"
    },
    {
      "inputs": [
        {
          "internalType": "bytes16",
          "name": "nftId",
          "type": "bytes16"
        },
        {
          "internalType": "bytes32",
          "name": "proof",
          "type": "bytes32"
        }
      ],
      "name": "purchaseNft",
      "outputs": [],
      "stateMutability": "payable",
      "type": "function"
    },
    {
      "inputs": [
        {
          "internalType": "bytes32",
          "name": "nftHash",
          "type": "bytes32"
        }
      ],
      "name": "repurchaseNft",
      "outputs": [],
      "stateMutability": "payable",
      "type": "function"
    },
    {
      "inputs": [
        {
          "internalType": "bytes32",
          "name": "nftHash",
          "type": "bytes32"
        }
      ],
      "name": "activateNft",
      "outputs": [],
      "stateMutability": "nonpayable",
      "type": "function"
    },
    {
      "inputs": [
        {
          "internalType": "bytes32",
          "name": "nftHash",
          "type": "bytes32"
        }
      ],
      "name": "deactivateNft",
      "outputs": [],
      "stateMutability": "nonpayable",
      "type": "function"
    },
    {
      "inputs": [
        {
          "internalType": "address",
          "name": "newOwner",
          "type": "address"
        }
      ],
      "name": "transferOwnership",
      "outputs": [],
      "stateMutability": "nonpayable",
      "type": "function"
    },
    {
      "inputs": [],
      "name": "getNftCount",
      "outputs": [
        {
          "internalType": "uint256",
          "name": "",
          "type": "uint256"
        }
      ],
      "stateMutability": "view",
      "type": "function"
    },
    {
      "inputs": [
        {
          "internalType": "uint256",
          "name": "index",
          "type": "uint256"
        }
      ],
      "name": "getNftHashAtIndex",
      "outputs": [
        {
          "internalType": "bytes32",
          "name": "",
          "type": "bytes32"
        }
      ],
      "stateMutability": "view",
      "type": "function"
    },
    {
      "inputs": [
        {
          "internalType": "bytes32",
          "name": "nftHash",
          "type": "bytes32"
        }
      ],
      "name": "getNftByHash",
      "outputs": [
        {
          "components": [
            {
              "internalType": "uint256",
              "name": "id",
              "type": "uint256"
            },
            {
              "internalType": "uint256",
              "name": "price",
              "type": "uint256"
            },
            {
              "internalType": "bytes32",
              "name": "proof",
              "type": "bytes32"
            },
            {
              "internalType": "address",
              "name": "owner",
              "type": "address"
            },
            {
              "internalType": "enum NftMarketplace.State",
              "name": "state",
              "type": "uint8"
            }
          ],
          "internalType": "struct NftMarketplace.Nft",
          "name": "",
          "type": "tuple"
        }
      ],
      "stateMutability": "view",
      "type": "function"
    },
    {
      "inputs": [],
      "name": "getContractOwner",
      "outputs": [
        {
          "internalType": "address",
          "name": "",
          "type": "address"
        }
      ],
      "stateMutability": "view",
      "type": "function"
    }
  ],
  "bytecode": "0x608060405260008060006101000a81548160ff02191690831515021790555034801561002a57600080fd5b5061003a3361003f60201b60201c565b610083565b80600460006101000a81548173ffffffffffffffffffffffffffffffffffffffff021916908373ffffffffffffffffffffffffffffffffffffffff16021790555050565b6119d7806100926000396000f3fe6080604052600436106100ec5760003560e01c8063873baf1d1161008a578063d1766c6f11610059578063d1766c6f146102a6578063daaa8c00146102c2578063db2e21bc146102eb578063f2fde38b14610302576100f3565b8063873baf1d146102125780639cb8a26a1461023b578063c0267c5f14610252578063c4bc5da51461028f576100f3565b80632e1a7d4d116100c65780632e1a7d4d146101685780633f683b6a14610191578063442890d5146101bc578063692f1d12146101e7576100f3565b806302ce52c2146100f8578063070bad621461013557806312253a6c14610151576100f3565b366100f357005b600080fd5b34801561010457600080fd5b5061011f600480360381019061011a9190611493565b61032b565b60405161012c91906116aa565b60405180910390f35b61014f600480360381019061014a919061146a565b610348565b005b34801561015d57600080fd5b5061016661050f565b005b34801561017457600080fd5b5061018f600480360381019061018a9190611493565b610597565b005b34801561019d57600080fd5b506101a66106d5565b6040516101b3919061168f565b60405180910390f35b3480156101c857600080fd5b506101d16106e6565b6040516101de9190611674565b60405180910390f35b3480156101f357600080fd5b506101fc610710565b6040516102099190611720565b60405180910390f35b34801561021e57600080fd5b506102396004803603810190610234919061146a565b61071a565b005b34801561024757600080fd5b50610250610906565b005b34801561025e57600080fd5b506102796004803603810190610274919061146a565b6109c4565b6040516102869190611705565b60405180910390f35b34801561029b57600080fd5b506102a4610aec565b005b6102c060048036038101906102bb919061142e565b610b74565b005b3480156102ce57600080fd5b506102e960048036038101906102e4919061146a565b610d79565b005b3480156102f757600080fd5b50610300611044565b005b34801561030e57600080fd5b5061032960048036038101906103249190611405565b611198565b005b600060026000838152602001908152602001600020549050919050565b60008054906101000a900460ff161561036057600080fd5b61036981611210565b61039f576040517f4bd7421500000000000000000000000000000000000000000000000000000000815260040160405180910390fd5b6103a88161127f565b6103de576040517f726b4a8800000000000000000000000000000000000000000000000000000000815260040160405180910390fd5b600060016000838152602001908152602001600020905060028081111561042e577f4e487b7100000000000000000000000000000000000000000000000000000000600052602160045260246000fd5b8160030160149054906101000a900460ff166002811115610478577f4e487b7100000000000000000000000000000000000000000000000000000000600052602160045260246000fd5b146104af576040517fbaf3f0f700000000000000000000000000000000000000000000000000000000815260040160405180910390fd5b60008160030160146101000a81548160ff021916908360028111156104fd577f4e487b7100000000000000000000000000000000000000000000000000000000600052602160045260246000fd5b02179055503481600101819055505050565b6105176106e6565b73ffffffffffffffffffffffffffffffffffffffff163373ffffffffffffffffffffffffffffffffffffffff161461057b576040517f5fc483c500000000000000000000000000000000000000000000000000000000815260040160405180910390fd5b60016000806101000a81548160ff021916908315150217905550565b61059f6106e6565b73ffffffffffffffffffffffffffffffffffffffff163373ffffffffffffffffffffffffffffffffffffffff1614610603576040517f5fc483c500000000000000000000000000000000000000000000000000000000815260040160405180910390fd5b6000600460009054906101000a900473ffffffffffffffffffffffffffffffffffffffff1673ffffffffffffffffffffffffffffffffffffffff168260405161064b9061165f565b60006040518083038185875af1925050503d8060008114610688576040519150601f19603f3d011682016040523d82523d6000602084013e61068d565b606091505b50509050806106d1576040517f08c379a00000000000000000000000000000000000000000000000000000000081526004016106c8906116e5565b60405180910390fd5b5050565b60008054906101000a900460ff1681565b6000600460009054906101000a900473ffffffffffffffffffffffffffffffffffffffff16905090565b6000600354905090565b60008054906101000a900460ff161561073257600080fd5b61073a6106e6565b73ffffffffffffffffffffffffffffffffffffffff163373ffffffffffffffffffffffffffffffffffffffff161461079e576040517f5fc483c500000000000000000000000000000000000000000000000000000000815260040160405180910390fd5b6107a781611210565b6107dd576040517f4bd7421500000000000000000000000000000000000000000000000000000000815260040160405180910390fd5b60006001600083815260200190815260200160002090506000600281111561082e577f4e487b7100000000000000000000000000000000000000000000000000000000600052602160045260246000fd5b8160030160149054906101000a900460ff166002811115610878577f4e487b7100000000000000000000000000000000000000000000000000000000600052602160045260246000fd5b146108af576040517fbaf3f0f700000000000000000000000000000000000000000000000000000000815260040160405180910390fd5b60018160030160146101000a81548160ff021916908360028111156108fd577f4e487b7100000000000000000000000000000000000000000000000000000000600052602160045260246000fd5b02179055505050565b60008054906101000a900460ff1661091d57600080fd5b6109256106e6565b73ffffffffffffffffffffffffffffffffffffffff163373ffffffffffffffffffffffffffffffffffffffff1614610989576040517f5fc483c500000000000000000000000000000000000000000000000000000000815260040160405180910390fd5b600460009054906101000a900473ffffffffffffffffffffffffffffffffffffffff1673ffffffffffffffffffffffffffffffffffffffff16ff5b6109cc611331565b600160008381526020019081526020016000206040518060a00160405290816000820154815260200160018201548152602001600282015481526020016003820160009054906101000a900473ffffffffffffffffffffffffffffffffffffffff1673ffffffffffffffffffffffffffffffffffffffff1673ffffffffffffffffffffffffffffffffffffffff1681526020016003820160149054906101000a900460ff166002811115610aa9577f4e487b7100000000000000000000000000000000000000000000000000000000600052602160045260246000fd5b6002811115610ae1577f4e487b7100000000000000000000000000000000000000000000000000000000600052602160045260246000fd5b815250509050919050565b610af46106e6565b73ffffffffffffffffffffffffffffffffffffffff163373ffffffffffffffffffffffffffffffffffffffff1614610b58576040517f5fc483c500000000000000000000000000000000000000000000000000000000815260040160405180910390fd5b60008060006101000a81548160ff021916908315150217905550565b60008054906101000a900460ff1615610b8c57600080fd5b60008233604051602001610ba1929190611633565b604051602081830303815290604052805190602001209050610bc28161127f565b15610bf9576040517f80a315b000000000000000000000000000000000000000000000000000000000815260040160405180910390fd5b600060036000815480929190610c0e906117fa565b9190505590508160026000838152602001908152602001600020819055506040518060a001604052808281526020013481526020018481526020013373ffffffffffffffffffffffffffffffffffffffff16815260200160006002811115610c9f577f4e487b7100000000000000000000000000000000000000000000000000000000600052602160045260246000fd5b8152506001600084815260200190815260200160002060008201518160000155602082015181600101556040820151816002015560608201518160030160006101000a81548173ffffffffffffffffffffffffffffffffffffffff021916908373ffffffffffffffffffffffffffffffffffffffff16021790555060808201518160030160146101000a81548160ff02191690836002811115610d6b577f4e487b7100000000000000000000000000000000000000000000000000000000600052602160045260246000fd5b021790555090505050505050565b60008054906101000a900460ff1615610d9157600080fd5b610d996106e6565b73ffffffffffffffffffffffffffffffffffffffff163373ffffffffffffffffffffffffffffffffffffffff1614610dfd576040517f5fc483c500000000000000000000000000000000000000000000000000000000815260040160405180910390fd5b610e0681611210565b610e3c576040517f4bd7421500000000000000000000000000000000000000000000000000000000815260040160405180910390fd5b600060016000838152602001908152602001600020905060006002811115610e8d577f4e487b7100000000000000000000000000000000000000000000000000000000600052602160045260246000fd5b8160030160149054906101000a900460ff166002811115610ed7577f4e487b7100000000000000000000000000000000000000000000000000000000600052602160045260246000fd5b14610f0e576040517fbaf3f0f700000000000000000000000000000000000000000000000000000000815260040160405180910390fd5b60008160030160009054906101000a900473ffffffffffffffffffffffffffffffffffffffff1673ffffffffffffffffffffffffffffffffffffffff168260010154604051610f5c9061165f565b60006040518083038185875af1925050503d8060008114610f99576040519150601f19603f3d011682016040523d82523d6000602084013e610f9e565b606091505b5050905080610fe2576040517f08c379a0000000000000000000000000000000000000000000000000000000008152600401610fd9906116c5565b60405180910390fd5b60028260030160146101000a81548160ff02191690836002811115611030577f4e487b7100000000000000000000000000000000000000000000000000000000600052602160045260246000fd5b021790555060008260010181905550505050565b60008054906101000a900460ff1661105b57600080fd5b6110636106e6565b73ffffffffffffffffffffffffffffffffffffffff163373ffffffffffffffffffffffffffffffffffffffff16146110c7576040517f5fc483c500000000000000000000000000000000000000000000000000000000815260040160405180910390fd5b6000600460009054906101000a900473ffffffffffffffffffffffffffffffffffffffff1673ffffffffffffffffffffffffffffffffffffffff164760405161110f9061165f565b60006040518083038185875af1925050503d806000811461114c576040519150601f19603f3d011682016040523d82523d6000602084013e611151565b606091505b5050905080611195576040517f08c379a000000000000000000000000000000000000000000000000000000000815260040161118c906116e5565b60405180910390fd5b50565b6111a06106e6565b73ffffffffffffffffffffffffffffffffffffffff163373ffffffffffffffffffffffffffffffffffffffff1614611204576040517f5fc483c500000000000000000000000000000000000000000000000000000000815260040160405180910390fd5b61120d816112ed565b50565b60008073ffffffffffffffffffffffffffffffffffffffff166001600084815260200190815260200160002060030160009054906101000a900473ffffffffffffffffffffffffffffffffffffffff1673ffffffffffffffffffffffffffffffffffffffff1614159050919050565b60003373ffffffffffffffffffffffffffffffffffffffff166001600084815260200190815260200160002060030160009054906101000a900473ffffffffffffffffffffffffffffffffffffffff1673ffffffffffffffffffffffffffffffffffffffff16149050919050565b80600460006101000a81548173ffffffffffffffffffffffffffffffffffffffff021916908373ffffffffffffffffffffffffffffffffffffffff16021790555050565b6040518060a00160405280600081526020016000815260200160008019168152602001600073ffffffffffffffffffffffffffffffffffffffff168152602001600060028111156113ab577f4e487b7100000000000000000000000000000000000000000000000000000000600052602160045260246000fd5b81525090565b6000813590506113c081611945565b92915050565b6000813590506113d58161195c565b92915050565b6000813590506113ea81611973565b92915050565b6000813590506113ff8161198a565b92915050565b60006020828403121561141757600080fd5b6000611425848285016113b1565b91505092915050565b6000806040838503121561144157600080fd5b600061144f858286016113c6565b9250506020611460858286016113db565b9150509250929050565b60006020828403121561147c57600080fd5b600061148a848285016113db565b91505092915050565b6000602082840312156114a557600080fd5b60006114b3848285016113f0565b91505092915050565b6114c581611757565b82525050565b6114d481611757565b82525050565b6114eb6114e682611757565b611843565b82525050565b6114fa81611769565b82525050565b61151161150c82611775565b611855565b82525050565b611520816117a1565b82525050565b61152f816117a1565b82525050565b61153e816117e8565b82525050565b6000611551601083611746565b915061155c826118dc565b602082019050919050565b600061157460008361173b565b915061157f82611905565b600082019050919050565b6000611597601083611746565b91506115a282611908565b602082019050919050565b60a0820160008201516115c36000850182611615565b5060208201516115d66020850182611615565b5060408201516115e96040850182611517565b5060608201516115fc60608501826114bc565b50608082015161160f6080850182611535565b50505050565b61161e816117de565b82525050565b61162d816117de565b82525050565b600061163f8285611500565b60108201915061164f82846114da565b6014820191508190509392505050565b600061166a82611567565b9150819050919050565b600060208201905061168960008301846114cb565b92915050565b60006020820190506116a460008301846114f1565b92915050565b60006020820190506116bf6000830184611526565b92915050565b600060208201905081810360008301526116de81611544565b9050919050565b600060208201905081810360008301526116fe8161158a565b9050919050565b600060a08201905061171a60008301846115ad565b92915050565b60006020820190506117356000830184611624565b92915050565b600081905092915050565b600082825260208201905092915050565b6000611762826117be565b9050919050565b60008115159050919050565b60007fffffffffffffffffffffffffffffffff0000000000000000000000000000000082169050919050565b6000819050919050565b60008190506117b982611931565b919050565b600073ffffffffffffffffffffffffffffffffffffffff82169050919050565b6000819050919050565b60006117f3826117ab565b9050919050565b6000611805826117de565b91507fffffffffffffffffffffffffffffffffffffffffffffffffffffffffffffffff82141561183857611837611871565b5b600182019050919050565b600061184e8261185f565b9050919050565b6000819050919050565b600061186a826118cf565b9050919050565b7f4e487b7100000000000000000000000000000000000000000000000000000000600052601160045260246000fd5b7f4e487b7100000000000000000000000000000000000000000000000000000000600052602160045260246000fd5b60008160601b9050919050565b7f5472616e73666572206661696c65642100000000000000000000000000000000600082015250565b50565b7f5472616e73666572206661696c65642e00000000000000000000000000000000600082015250565b60038110611942576119416118a0565b5b50565b61194e81611757565b811461195957600080fd5b50565b61196581611775565b811461197057600080fd5b50565b61197c816117a1565b811461198757600080fd5b50565b611993816117de565b811461199e57600080fd5b5056fea2646970667358221220967e771cbe990cc124f4b8facac17be54478efb06ddc568d7bcf9b78121f500b64736f6c63430008040033",
  "immutableReferences": {},
  "source": "// SPDX-License-Identifier: MIT\npragma solidity >=0.4.22 <0.9.0;\n\ncontract NftMarketplace {\n\n  enum State {\n    Purchased,\n    Activated,\n    Deactivated\n  }\n\n  struct Nft {\n    uint id; // 32\n    uint price; // 32\n    bytes32 proof; // 32\n    address owner; // 20\n    State state; // 1\n  }\n\n  bool public isStopped = false;\n\n  mapping(bytes32 => Nft) private ownedNfts;\n\n  mapping(uint => bytes32) private ownedNftHash;\n\n  uint private totalOwnedNfts;\n\n  address payable private owner;\n\n  constructor() {\n    setContractOwner(msg.sender);\n  }\n\n  error InvalidState();\n\n  error NftIsNotCreated();\n\n  error NftHasOwner();\n\n  error SenderIsNotNftOwner();\n\n  error OnlyOwner();\n\n  modifier onlyOwner() {\n    if (msg.sender != getContractOwner()) {\n      revert OnlyOwner();\n    }\n    _;\n  }\n\n  modifier onlyWhenNotStopped {\n    require(!isStopped);\n    _;\n  }\n\n  modifier onlyWhenStopped {\n    require(isStopped);\n    _;\n  }\n\n  receive() external payable {}\n\n  function withdraw(uint amount)\n    external\n    onlyOwner\n  {\n    (bool success, ) = owner.call{value: amount}(\"\");\n    require(success, \"Transfer failed.\");\n  }\n\n  function emergencyWithdraw()\n    external\n    onlyWhenStopped\n    onlyOwner\n  {\n    (bool success, ) = owner.call{value: address(this).balance}(\"\");\n    require(success, \"Transfer failed.\");\n  }\n\n  function selfDestruct()\n    external\n    onlyWhenStopped\n    onlyOwner\n  {\n    selfdestruct(owner);\n  }\n\n  function stopContract()\n    external\n    onlyOwner\n  {\n    isStopped = true;\n  }\n\n  function resumeContract()\n    external\n    onlyOwner\n  {\n    isStopped = false;\n  }\n\n  function purchaseNft(\n    bytes16 nftId, // 0x00000000000000000000000000003130\n    bytes32 proof // 0x0000000000000000000000000000313000000000000000000000000000003130\n  )\n    external\n    payable\n    onlyWhenNotStopped\n  {\n    bytes32 nftHash = keccak256(abi.encodePacked(nftId, msg.sender));\n\n    if (hasNftOwnership(nftHash)) {\n      revert NftHasOwner();\n    }\n\n    uint id = totalOwnedNfts++;\n\n    ownedNftHash[id] = nftHash;\n    ownedNfts[nftHash] = Nft({\n      id: id,\n      price: msg.value,\n      proof: proof,\n      owner: msg.sender,\n      state: State.Purchased\n    });\n  }\n\n  function repurchaseNft(bytes32 nftHash)\n    external\n    payable\n    onlyWhenNotStopped\n  {\n    if (!isNftCreated(nftHash)) {\n      revert NftIsNotCreated();\n    }\n\n    if (!hasNftOwnership(nftHash)) {\n      revert SenderIsNotNftOwner();\n    }\n\n    Nft storage nft = ownedNfts[nftHash];\n\n    if (nft.state != State.Deactivated) {\n      revert InvalidState();\n    }\n\n    nft.state = State.Purchased;\n    nft.price = msg.value;\n  }\n\n  function activateNft(bytes32 nftHash)\n    external\n    onlyWhenNotStopped\n    onlyOwner\n  {\n    if (!isNftCreated(nftHash)) {\n      revert NftIsNotCreated();\n    }\n\n    Nft storage nft = ownedNfts[nftHash];\n\n    if (nft.state != State.Purchased) {\n      revert InvalidState();\n    }\n\n    nft.state = State.Activated;\n  }\n\n  function deactivateNft(bytes32 nftHash)\n    external\n    onlyWhenNotStopped\n    onlyOwner\n  {\n    if (!isNftCreated(nftHash)) {\n      revert NftIsNotCreated();\n    }\n\n      Nft storage nft = ownedNfts[nftHash];\n\n    if (nft.state != State.Purchased) {\n      revert InvalidState();\n    }\n\n    (bool success, ) = nft.owner.call{value: nft.price}(\"\");\n    require(success, \"Transfer failed!\");\n\n    nft.state = State.Deactivated;\n    nft.price = 0;\n  }\n\n  function transferOwnership(address newOwner)\n    external\n    onlyOwner\n  {\n    setContractOwner(newOwner);\n  }\n\n  function getNftCount()\n    external\n    view\n    returns (uint)\n  {\n    return totalOwnedNfts;\n  }\n\n  function getNftHashAtIndex(uint index)\n    external\n    view\n    returns (bytes32)\n  {\n    return ownedNftHash[index];\n  }\n\n  function getNftByHash(bytes32 nftHash)\n    external\n    view\n    returns (Nft memory)\n  {\n    return ownedNfts[nftHash];\n  }\n\n  function getContractOwner()\n    public\n    view\n    returns (address)\n  {\n    return owner;\n  }\n\n  function setContractOwner(address newOwner) private {\n    owner = payable(newOwner);\n  }\n\n  function isNftCreated(bytes32 nftHash)\n    private\n    view\n    returns (bool)\n  {\n    return ownedNfts[nftHash].owner != 0x0000000000000000000000000000000000000000;\n  }\n\n  function hasNftOwnership(bytes32 nftHash)\n    private\n    view\n    returns (bool)\n  {\n    return ownedNfts[nftHash].owner == msg.sender;\n  }\n}\n",
  "sourcePath": "/Users/anand.g/nft/BAT-NFT-Ohana/contracts/NftMarketplace.sol",
  "compiler": {
    "name": "solc",
    "version": "0.8.4+commit.c7e474f2.Emscripten.clang"
  },
  "schemaVersion": "3.4.10",
  "updatedAt": "2022-12-23T11:05:05.895Z",
  "devdoc": {
    "kind": "dev",
    "methods": {},
    "version": 1
  },
  "userdoc": {
    "kind": "user",
    "methods": {},
    "version": 1
  }
}